{
  "abi": [
    {
      "inputs": [
        {
          "internalType": "address",
          "name": "_uniswapRouterAddress",
          "type": "address"
        },
        {
          "internalType": "address",
          "name": "_sushiswapRouterAddress",
          "type": "address"
        },
        {
          "internalType": "address",
          "name": "_weth",
          "type": "address"
        },
        {
          "internalType": "address",
          "name": "_dai",
          "type": "address"
        }
      ],
      "stateMutability": "nonpayable",
      "type": "constructor"
    },
    {
      "inputs": [
        {
          "internalType": "uint256",
          "name": "amountIn",
          "type": "uint256"
        },
        {
          "internalType": "uint256",
          "name": "higherPrice",
          "type": "uint256"
        },
        {
          "internalType": "uint256",
          "name": "lowerPrice",
          "type": "uint256"
        }
      ],
      "name": "_checkIfArbitrageIsProfitable",
      "outputs": [
        {
          "internalType": "bool",
          "name": "",
          "type": "bool"
        }
      ],
      "stateMutability": "pure",
      "type": "function"
    },
    {
      "inputs": [
        {
          "internalType": "uint256",
          "name": "amount",
          "type": "uint256"
        }
      ],
      "name": "_comparePrice",
      "outputs": [
        {
          "internalType": "enum SimpleArbitrage.Exchange",
          "name": "",
          "type": "uint8"
        }
      ],
      "stateMutability": "view",
      "type": "function"
    },
    {
      "inputs": [
        {
          "internalType": "address",
          "name": "routerAddress",
          "type": "address"
        },
        {
          "internalType": "address",
          "name": "sell_token",
          "type": "address"
        },
        {
          "internalType": "address",
          "name": "buy_token",
          "type": "address"
        },
        {
          "internalType": "uint256",
          "name": "amount",
          "type": "uint256"
        }
      ],
      "name": "_getPrice",
      "outputs": [
        {
          "internalType": "uint256",
          "name": "",
          "type": "uint256"
        }
      ],
      "stateMutability": "view",
      "type": "function"
    },
    {
      "inputs": [
        {
          "internalType": "uint256",
          "name": "amountIn",
          "type": "uint256"
        },
        {
          "internalType": "address",
          "name": "routerAddress",
          "type": "address"
        },
        {
          "internalType": "address",
          "name": "sell_token",
          "type": "address"
        },
        {
          "internalType": "address",
          "name": "buy_token",
          "type": "address"
        }
      ],
      "name": "_swap",
      "outputs": [
        {
          "internalType": "uint256",
          "name": "",
          "type": "uint256"
        }
      ],
      "stateMutability": "nonpayable",
      "type": "function"
    },
    {
      "inputs": [],
      "name": "arbitrageAmount",
      "outputs": [
        {
          "internalType": "uint256",
          "name": "",
          "type": "uint256"
        }
      ],
      "stateMutability": "view",
      "type": "function"
    },
    {
      "inputs": [],
      "name": "daiAddress",
      "outputs": [
        {
          "internalType": "address",
          "name": "",
          "type": "address"
        }
      ],
      "stateMutability": "view",
      "type": "function"
    },
    {
      "inputs": [
        {
          "internalType": "uint256",
          "name": "amount",
          "type": "uint256"
        }
      ],
      "name": "deposit",
      "outputs": [],
      "stateMutability": "nonpayable",
      "type": "function"
    },
    {
      "inputs": [],
      "name": "makeArbitrage",
      "outputs": [],
      "stateMutability": "nonpayable",
      "type": "function"
    },
    {
      "inputs": [],
      "name": "owner",
      "outputs": [
        {
          "internalType": "address",
          "name": "",
          "type": "address"
        }
      ],
      "stateMutability": "view",
      "type": "function"
    },
    {
      "inputs": [],
      "name": "sushiswapRouterAddress",
      "outputs": [
        {
          "internalType": "address",
          "name": "",
          "type": "address"
        }
      ],
      "stateMutability": "view",
      "type": "function"
    },
    {
      "inputs": [],
      "name": "uniswapRouterAddress",
      "outputs": [
        {
          "internalType": "address",
          "name": "",
          "type": "address"
        }
      ],
      "stateMutability": "view",
      "type": "function"
    },
    {
      "inputs": [],
      "name": "wethAddress",
      "outputs": [
        {
          "internalType": "address",
          "name": "",
          "type": "address"
        }
      ],
      "stateMutability": "view",
      "type": "function"
    },
    {
      "inputs": [
        {
          "internalType": "uint256",
          "name": "amount",
          "type": "uint256"
        }
      ],
      "name": "withdraw",
      "outputs": [],
      "stateMutability": "nonpayable",
      "type": "function"
    }
  ],
  "bytecode": "608060405234801561001057600080fd5b50604051610edb380380610edb83398101604081905261002f916100a8565b600380546001600160a01b039586166001600160a01b0319918216179091556004805494861694821694909417909355600080548416331790556001805492851692841692909217909155600280549190931691161790556100fc565b80516001600160a01b03811681146100a357600080fd5b919050565b600080600080608085870312156100be57600080fd5b6100c78561008c565b93506100d56020860161008c565b92506100e36040860161008c565b91506100f16060860161008c565b905092959194509250565b610dd08061010b6000396000f3fe608060405234801561001057600080fd5b50600436106100cf5760003560e01c806362962e931161008c57806393d3bf741161006657806393d3bf74146101a1578063b6b55f25146101c1578063c599e7b1146101d4578063f77b8ad1146101dd57600080fd5b806362962e931461015a5780637937a9861461017b5780638da5cb5b1461018e57600080fd5b806319d0a9a2146100d457806320ca3c7f146101045780632ada23a6146101175780632c387275146101215780632e1a7d4d146101345780634f0e0ef314610147575b600080fd5b6004546100e7906001600160a01b031681565b6040516001600160a01b0390911681526020015b60405180910390f35b6003546100e7906001600160a01b031681565b61011f610200565b005b6002546100e7906001600160a01b031681565b61011f610142366004610a30565b6102ff565b6001546100e7906001600160a01b031681565b61016d610168366004610a65565b610450565b6040519081526020016100fb565b61016d610189366004610ab2565b61062f565b6000546100e7906001600160a01b031681565b6101b46101af366004610a30565b610758565b6040516100fb9190610b13565b61011f6101cf366004610a30565b61087e565b61016d60055481565b6101f06101eb366004610b3b565b6109ce565b60405190151581526020016100fb565b600554600061020e82610758565b9050600081600281111561022457610224610afd565b1415610288576003546001546002546000926102529286926001600160a01b03928316929182169116610450565b60045460025460015492935060009261027d9285926001600160a01b03918216929082169116610450565b600555506102fb9050565b600181600281111561029c5761029c610afd565b14156102fb576004546001546002546000926102ca9286926001600160a01b03928316929182169116610450565b6003546002546001549293506000926102f59285926001600160a01b03918216929082169116610450565b60055550505b5050565b6000546001600160a01b031633146103595760405162461bcd60e51b81526020600482015260186024820152776f6e6c79206f776e65722063616e2063616c6c207468697360401b60448201526064015b60405180910390fd5b6005548111156103ab5760405162461bcd60e51b815260206004820152601b60248201527f4e6f7420656e6f75676820616d6f756e74206465706f736974656400000000006044820152606401610350565b6001546040516323b872dd60e01b8152306004820152336024820152604481018390526001600160a01b03909116906323b872dd90606401602060405180830381600087803b1580156103fd57600080fd5b505af1158015610411573d6000803e3d6000fd5b505050506040513d601f19601f820116820180604052508101906104359190610b67565b5080600560008282546104489190610b9f565b909155505050565b60405163095ea7b360e01b81526001600160a01b038481166004830152602482018690526000919084169063095ea7b390604401602060405180830381600087803b15801561049e57600080fd5b505af11580156104b2573d6000803e3d6000fd5b505050506040513d601f19601f820116820180604052508101906104d69190610b67565b50600060646104e78686868a61062f565b6104f290605f610bb6565b6104fc9190610bd5565b6040805160028082526060820183529293506000929091602083019080368337019050509050848160008151811061053657610536610c0d565b60200260200101906001600160a01b031690816001600160a01b031681525050838160018151811061056a5761056a610c0d565b6001600160a01b0392831660209182029290920101526040516338ed173960e01b81526000918816906338ed1739906105af908b908790879030904290600401610c67565b600060405180830381600087803b1580156105c957600080fd5b505af11580156105dd573d6000803e3d6000fd5b505050506040513d6000823e601f3d908101601f191682016040526106059190810190610ca3565b60018151811061061757610617610c0d565b60200260200101519050809350505050949350505050565b60408051600280825260608201835260009283929190602083019080368337019050509050848160008151811061066857610668610c0d565b60200260200101906001600160a01b031690816001600160a01b031681525050838160018151811061069c5761069c610c0d565b6001600160a01b03928316602091820292909201015260405163d06ca61f60e01b815260009188169063d06ca61f906106db9087908690600401610d61565b60006040518083038186803b1580156106f357600080fd5b505afa158015610707573d6000803e3d6000fd5b505050506040513d6000823e601f3d908101601f1916820160405261072f9190810190610ca3565b60018151811061074157610741610c0d565b602002602001015190508092505050949350505050565b6003546001546002546000928392610781926001600160a01b039283169291821691168661062f565b6004546001546002549293506000926107aa926001600160a01b0390811692811691168761062f565b905080821115610810576107bf8483836109ce565b6108065760405162461bcd60e51b8152602060048201526018602482015277417262697472616765206e6f742070726f66697461626c6560401b6044820152606401610350565b5060009392505050565b80821015610874576108238482846109ce565b61086a5760405162461bcd60e51b8152602060048201526018602482015277417262697472616765206e6f742070726f66697461626c6560401b6044820152606401610350565b5060019392505050565b5060029392505050565b6000546001600160a01b031633146108d35760405162461bcd60e51b81526020600482015260186024820152776f6e6c79206f776e65722063616e2063616c6c207468697360401b6044820152606401610350565b600081116109315760405162461bcd60e51b815260206004820152602560248201527f4465706f73697420616d6f756e74206d75737420626520677265617465722074604482015264068616e20360dc1b6064820152608401610350565b6001546040516323b872dd60e01b8152336004820152306024820152604481018390526001600160a01b03909116906323b872dd90606401602060405180830381600087803b15801561098357600080fd5b505af1158015610997573d6000803e3d6000fd5b505050506040513d601f19601f820116820180604052508101906109bb9190610b67565b5080600560008282546104489190610d82565b600080836109dc8482610b9f565b6109e69190610bd5565b905060006103e86109f8876003610bb6565b610a03906002610bb6565b610a0d9190610bd5565b905080821115610a2257600192505050610a29565b6000925050505b9392505050565b600060208284031215610a4257600080fd5b5035919050565b80356001600160a01b0381168114610a6057600080fd5b919050565b60008060008060808587031215610a7b57600080fd5b84359350610a8b60208601610a49565b9250610a9960408601610a49565b9150610aa760608601610a49565b905092959194509250565b60008060008060808587031215610ac857600080fd5b610ad185610a49565b9350610adf60208601610a49565b9250610aed60408601610a49565b9396929550929360600135925050565b634e487b7160e01b600052602160045260246000fd5b6020810160038310610b3557634e487b7160e01b600052602160045260246000fd5b91905290565b600080600060608486031215610b5057600080fd5b505081359360208301359350604090920135919050565b600060208284031215610b7957600080fd5b81518015158114610a2957600080fd5b634e487b7160e01b600052601160045260246000fd5b600082821015610bb157610bb1610b89565b500390565b6000816000190483118215151615610bd057610bd0610b89565b500290565b600082610bf257634e487b7160e01b600052601260045260246000fd5b500490565b634e487b7160e01b600052604160045260246000fd5b634e487b7160e01b600052603260045260246000fd5b600081518084526020808501945080840160005b83811015610c5c5781516001600160a01b031687529582019590820190600101610c37565b509495945050505050565b85815284602082015260a060408201526000610c8660a0830186610c23565b6001600160a01b0394909416606083015250608001529392505050565b60006020808385031215610cb657600080fd5b825167ffffffffffffffff80821115610cce57600080fd5b818501915085601f830112610ce257600080fd5b815181811115610cf457610cf4610bf7565b8060051b604051601f19603f83011681018181108582111715610d1957610d19610bf7565b604052918252848201925083810185019188831115610d3757600080fd5b938501935b82851015610d5557845184529385019392850192610d3c565b98975050505050505050565b828152604060208201526000610d7a6040830184610c23565b949350505050565b60008219821115610d9557610d95610b89565b50019056fea2646970667358221220ea528b41bd4882bfaf0eac5274db8f54fbe46453f4ef1b0b9571c78cd757a7cb64736f6c63430008090033",
  "bytecodeSha1": "e9447b109a559da429c28ad3489950a89f3cfc51",
  "compiler": {
    "evm_version": "istanbul",
    "optimizer": {
      "enabled": true,
      "runs": 200
    },
    "version": "0.8.9+commit.e5eed63a"
  },
  "contractName": "SimpleArbitrage",
  "language": "Solidity",
  "natspec": {
    "kind": "dev",
    "methods": {},
    "version": 1
  },
  "opcodes": "PUSH1 0x80 PUSH1 0x40 MSTORE CALLVALUE DUP1 ISZERO PUSH2 0x10 JUMPI PUSH1 0x0 DUP1 REVERT JUMPDEST POP PUSH1 0x4 CALLDATASIZE LT PUSH2 0xCF JUMPI PUSH1 0x0 CALLDATALOAD PUSH1 0xE0 SHR DUP1 PUSH4 0x62962E93 GT PUSH2 0x8C JUMPI DUP1 PUSH4 0x93D3BF74 GT PUSH2 0x66 JUMPI DUP1 PUSH4 0x93D3BF74 EQ PUSH2 0x1A1 JUMPI DUP1 PUSH4 0xB6B55F25 EQ PUSH2 0x1C1 JUMPI DUP1 PUSH4 0xC599E7B1 EQ PUSH2 0x1D4 JUMPI DUP1 PUSH4 0xF77B8AD1 EQ PUSH2 0x1DD JUMPI PUSH1 0x0 DUP1 REVERT JUMPDEST DUP1 PUSH4 0x62962E93 EQ PUSH2 0x15A JUMPI DUP1 PUSH4 0x7937A986 EQ PUSH2 0x17B JUMPI DUP1 PUSH4 0x8DA5CB5B EQ PUSH2 0x18E JUMPI PUSH1 0x0 DUP1 REVERT JUMPDEST DUP1 PUSH4 0x19D0A9A2 EQ PUSH2 0xD4 JUMPI DUP1 PUSH4 0x20CA3C7F EQ PUSH2 0x104 JUMPI DUP1 PUSH4 0x2ADA23A6 EQ PUSH2 0x117 JUMPI DUP1 PUSH4 0x2C387275 EQ PUSH2 0x121 JUMPI DUP1 PUSH4 0x2E1A7D4D EQ PUSH2 0x134 JUMPI DUP1 PUSH4 0x4F0E0EF3 EQ PUSH2 0x147 JUMPI JUMPDEST PUSH1 0x0 DUP1 REVERT JUMPDEST PUSH1 0x4 SLOAD PUSH2 0xE7 SWAP1 PUSH1 0x1 PUSH1 0x1 PUSH1 0xA0 SHL SUB AND DUP2 JUMP JUMPDEST PUSH1 0x40 MLOAD PUSH1 0x1 PUSH1 0x1 PUSH1 0xA0 SHL SUB SWAP1 SWAP2 AND DUP2 MSTORE PUSH1 0x20 ADD JUMPDEST PUSH1 0x40 MLOAD DUP1 SWAP2 SUB SWAP1 RETURN JUMPDEST PUSH1 0x3 SLOAD PUSH2 0xE7 SWAP1 PUSH1 0x1 PUSH1 0x1 PUSH1 0xA0 SHL SUB AND DUP2 JUMP JUMPDEST PUSH2 0x11F PUSH2 0x200 JUMP JUMPDEST STOP JUMPDEST PUSH1 0x2 SLOAD PUSH2 0xE7 SWAP1 PUSH1 0x1 PUSH1 0x1 PUSH1 0xA0 SHL SUB AND DUP2 JUMP JUMPDEST PUSH2 0x11F PUSH2 0x142 CALLDATASIZE PUSH1 0x4 PUSH2 0xA30 JUMP JUMPDEST PUSH2 0x2FF JUMP JUMPDEST PUSH1 0x1 SLOAD PUSH2 0xE7 SWAP1 PUSH1 0x1 PUSH1 0x1 PUSH1 0xA0 SHL SUB AND DUP2 JUMP JUMPDEST PUSH2 0x16D PUSH2 0x168 CALLDATASIZE PUSH1 0x4 PUSH2 0xA65 JUMP JUMPDEST PUSH2 0x450 JUMP JUMPDEST PUSH1 0x40 MLOAD SWAP1 DUP2 MSTORE PUSH1 0x20 ADD PUSH2 0xFB JUMP JUMPDEST PUSH2 0x16D PUSH2 0x189 CALLDATASIZE PUSH1 0x4 PUSH2 0xAB2 JUMP JUMPDEST PUSH2 0x62F JUMP JUMPDEST PUSH1 0x0 SLOAD PUSH2 0xE7 SWAP1 PUSH1 0x1 PUSH1 0x1 PUSH1 0xA0 SHL SUB AND DUP2 JUMP JUMPDEST PUSH2 0x1B4 PUSH2 0x1AF CALLDATASIZE PUSH1 0x4 PUSH2 0xA30 JUMP JUMPDEST PUSH2 0x758 JUMP JUMPDEST PUSH1 0x40 MLOAD PUSH2 0xFB SWAP2 SWAP1 PUSH2 0xB13 JUMP JUMPDEST PUSH2 0x11F PUSH2 0x1CF CALLDATASIZE PUSH1 0x4 PUSH2 0xA30 JUMP JUMPDEST PUSH2 0x87E JUMP JUMPDEST PUSH2 0x16D PUSH1 0x5 SLOAD DUP2 JUMP JUMPDEST PUSH2 0x1F0 PUSH2 0x1EB CALLDATASIZE PUSH1 0x4 PUSH2 0xB3B JUMP JUMPDEST PUSH2 0x9CE JUMP JUMPDEST PUSH1 0x40 MLOAD SWAP1 ISZERO ISZERO DUP2 MSTORE PUSH1 0x20 ADD PUSH2 0xFB JUMP JUMPDEST PUSH1 0x5 SLOAD PUSH1 0x0 PUSH2 0x20E DUP3 PUSH2 0x758 JUMP JUMPDEST SWAP1 POP PUSH1 0x0 DUP2 PUSH1 0x2 DUP2 GT ISZERO PUSH2 0x224 JUMPI PUSH2 0x224 PUSH2 0xAFD JUMP JUMPDEST EQ ISZERO PUSH2 0x288 JUMPI PUSH1 0x3 SLOAD PUSH1 0x1 SLOAD PUSH1 0x2 SLOAD PUSH1 0x0 SWAP3 PUSH2 0x252 SWAP3 DUP7 SWAP3 PUSH1 0x1 PUSH1 0x1 PUSH1 0xA0 SHL SUB SWAP3 DUP4 AND SWAP3 SWAP2 DUP3 AND SWAP2 AND PUSH2 0x450 JUMP JUMPDEST PUSH1 0x4 SLOAD PUSH1 0x2 SLOAD PUSH1 0x1 SLOAD SWAP3 SWAP4 POP PUSH1 0x0 SWAP3 PUSH2 0x27D SWAP3 DUP6 SWAP3 PUSH1 0x1 PUSH1 0x1 PUSH1 0xA0 SHL SUB SWAP2 DUP3 AND SWAP3 SWAP1 DUP3 AND SWAP2 AND PUSH2 0x450 JUMP JUMPDEST PUSH1 0x5 SSTORE POP PUSH2 0x2FB SWAP1 POP JUMP JUMPDEST PUSH1 0x1 DUP2 PUSH1 0x2 DUP2 GT ISZERO PUSH2 0x29C JUMPI PUSH2 0x29C PUSH2 0xAFD JUMP JUMPDEST EQ ISZERO PUSH2 0x2FB JUMPI PUSH1 0x4 SLOAD PUSH1 0x1 SLOAD PUSH1 0x2 SLOAD PUSH1 0x0 SWAP3 PUSH2 0x2CA SWAP3 DUP7 SWAP3 PUSH1 0x1 PUSH1 0x1 PUSH1 0xA0 SHL SUB SWAP3 DUP4 AND SWAP3 SWAP2 DUP3 AND SWAP2 AND PUSH2 0x450 JUMP JUMPDEST PUSH1 0x3 SLOAD PUSH1 0x2 SLOAD PUSH1 0x1 SLOAD SWAP3 SWAP4 POP PUSH1 0x0 SWAP3 PUSH2 0x2F5 SWAP3 DUP6 SWAP3 PUSH1 0x1 PUSH1 0x1 PUSH1 0xA0 SHL SUB SWAP2 DUP3 AND SWAP3 SWAP1 DUP3 AND SWAP2 AND PUSH2 0x450 JUMP JUMPDEST PUSH1 0x5 SSTORE POP POP JUMPDEST POP POP JUMP JUMPDEST PUSH1 0x0 SLOAD PUSH1 0x1 PUSH1 0x1 PUSH1 0xA0 SHL SUB AND CALLER EQ PUSH2 0x359 JUMPI PUSH1 0x40 MLOAD PUSH3 0x461BCD PUSH1 0xE5 SHL DUP2 MSTORE PUSH1 0x20 PUSH1 0x4 DUP3 ADD MSTORE PUSH1 0x18 PUSH1 0x24 DUP3 ADD MSTORE PUSH24 0x6F6E6C79206F776E65722063616E2063616C6C2074686973 PUSH1 0x40 SHL PUSH1 0x44 DUP3 ADD MSTORE PUSH1 0x64 ADD JUMPDEST PUSH1 0x40 MLOAD DUP1 SWAP2 SUB SWAP1 REVERT JUMPDEST PUSH1 0x5 SLOAD DUP2 GT ISZERO PUSH2 0x3AB JUMPI PUSH1 0x40 MLOAD PUSH3 0x461BCD PUSH1 0xE5 SHL DUP2 MSTORE PUSH1 0x20 PUSH1 0x4 DUP3 ADD MSTORE PUSH1 0x1B PUSH1 0x24 DUP3 ADD MSTORE PUSH32 0x4E6F7420656E6F75676820616D6F756E74206465706F73697465640000000000 PUSH1 0x44 DUP3 ADD MSTORE PUSH1 0x64 ADD PUSH2 0x350 JUMP JUMPDEST PUSH1 0x1 SLOAD PUSH1 0x40 MLOAD PUSH4 0x23B872DD PUSH1 0xE0 SHL DUP2 MSTORE ADDRESS PUSH1 0x4 DUP3 ADD MSTORE CALLER PUSH1 0x24 DUP3 ADD MSTORE PUSH1 0x44 DUP2 ADD DUP4 SWAP1 MSTORE PUSH1 0x1 PUSH1 0x1 PUSH1 0xA0 SHL SUB SWAP1 SWAP2 AND SWAP1 PUSH4 0x23B872DD SWAP1 PUSH1 0x64 ADD PUSH1 0x20 PUSH1 0x40 MLOAD DUP1 DUP4 SUB DUP2 PUSH1 0x0 DUP8 DUP1 EXTCODESIZE ISZERO DUP1 ISZERO PUSH2 0x3FD JUMPI PUSH1 0x0 DUP1 REVERT JUMPDEST POP GAS CALL ISZERO DUP1 ISZERO PUSH2 0x411 JUMPI RETURNDATASIZE PUSH1 0x0 DUP1 RETURNDATACOPY RETURNDATASIZE PUSH1 0x0 REVERT JUMPDEST POP POP POP POP PUSH1 0x40 MLOAD RETURNDATASIZE PUSH1 0x1F NOT PUSH1 0x1F DUP3 ADD AND DUP3 ADD DUP1 PUSH1 0x40 MSTORE POP DUP2 ADD SWAP1 PUSH2 0x435 SWAP2 SWAP1 PUSH2 0xB67 JUMP JUMPDEST POP DUP1 PUSH1 0x5 PUSH1 0x0 DUP3 DUP3 SLOAD PUSH2 0x448 SWAP2 SWAP1 PUSH2 0xB9F JUMP JUMPDEST SWAP1 SWAP2 SSTORE POP POP POP JUMP JUMPDEST PUSH1 0x40 MLOAD PUSH4 0x95EA7B3 PUSH1 0xE0 SHL DUP2 MSTORE PUSH1 0x1 PUSH1 0x1 PUSH1 0xA0 SHL SUB DUP5 DUP2 AND PUSH1 0x4 DUP4 ADD MSTORE PUSH1 0x24 DUP3 ADD DUP7 SWAP1 MSTORE PUSH1 0x0 SWAP2 SWAP1 DUP5 AND SWAP1 PUSH4 0x95EA7B3 SWAP1 PUSH1 0x44 ADD PUSH1 0x20 PUSH1 0x40 MLOAD DUP1 DUP4 SUB DUP2 PUSH1 0x0 DUP8 DUP1 EXTCODESIZE ISZERO DUP1 ISZERO PUSH2 0x49E JUMPI PUSH1 0x0 DUP1 REVERT JUMPDEST POP GAS CALL ISZERO DUP1 ISZERO PUSH2 0x4B2 JUMPI RETURNDATASIZE PUSH1 0x0 DUP1 RETURNDATACOPY RETURNDATASIZE PUSH1 0x0 REVERT JUMPDEST POP POP POP POP PUSH1 0x40 MLOAD RETURNDATASIZE PUSH1 0x1F NOT PUSH1 0x1F DUP3 ADD AND DUP3 ADD DUP1 PUSH1 0x40 MSTORE POP DUP2 ADD SWAP1 PUSH2 0x4D6 SWAP2 SWAP1 PUSH2 0xB67 JUMP JUMPDEST POP PUSH1 0x0 PUSH1 0x64 PUSH2 0x4E7 DUP7 DUP7 DUP7 DUP11 PUSH2 0x62F JUMP JUMPDEST PUSH2 0x4F2 SWAP1 PUSH1 0x5F PUSH2 0xBB6 JUMP JUMPDEST PUSH2 0x4FC SWAP2 SWAP1 PUSH2 0xBD5 JUMP JUMPDEST PUSH1 0x40 DUP1 MLOAD PUSH1 0x2 DUP1 DUP3 MSTORE PUSH1 0x60 DUP3 ADD DUP4 MSTORE SWAP3 SWAP4 POP PUSH1 0x0 SWAP3 SWAP1 SWAP2 PUSH1 0x20 DUP4 ADD SWAP1 DUP1 CALLDATASIZE DUP4 CALLDATACOPY ADD SWAP1 POP POP SWAP1 POP DUP5 DUP2 PUSH1 0x0 DUP2 MLOAD DUP2 LT PUSH2 0x536 JUMPI PUSH2 0x536 PUSH2 0xC0D JUMP JUMPDEST PUSH1 0x20 MUL PUSH1 0x20 ADD ADD SWAP1 PUSH1 0x1 PUSH1 0x1 PUSH1 0xA0 SHL SUB AND SWAP1 DUP2 PUSH1 0x1 PUSH1 0x1 PUSH1 0xA0 SHL SUB AND DUP2 MSTORE POP POP DUP4 DUP2 PUSH1 0x1 DUP2 MLOAD DUP2 LT PUSH2 0x56A JUMPI PUSH2 0x56A PUSH2 0xC0D JUMP JUMPDEST PUSH1 0x1 PUSH1 0x1 PUSH1 0xA0 SHL SUB SWAP3 DUP4 AND PUSH1 0x20 SWAP2 DUP3 MUL SWAP3 SWAP1 SWAP3 ADD ADD MSTORE PUSH1 0x40 MLOAD PUSH4 0x38ED1739 PUSH1 0xE0 SHL DUP2 MSTORE PUSH1 0x0 SWAP2 DUP9 AND SWAP1 PUSH4 0x38ED1739 SWAP1 PUSH2 0x5AF SWAP1 DUP12 SWAP1 DUP8 SWAP1 DUP8 SWAP1 ADDRESS SWAP1 TIMESTAMP SWAP1 PUSH1 0x4 ADD PUSH2 0xC67 JUMP JUMPDEST PUSH1 0x0 PUSH1 0x40 MLOAD DUP1 DUP4 SUB DUP2 PUSH1 0x0 DUP8 DUP1 EXTCODESIZE ISZERO DUP1 ISZERO PUSH2 0x5C9 JUMPI PUSH1 0x0 DUP1 REVERT JUMPDEST POP GAS CALL ISZERO DUP1 ISZERO PUSH2 0x5DD JUMPI RETURNDATASIZE PUSH1 0x0 DUP1 RETURNDATACOPY RETURNDATASIZE PUSH1 0x0 REVERT JUMPDEST POP POP POP POP PUSH1 0x40 MLOAD RETURNDATASIZE PUSH1 0x0 DUP3 RETURNDATACOPY PUSH1 0x1F RETURNDATASIZE SWAP1 DUP2 ADD PUSH1 0x1F NOT AND DUP3 ADD PUSH1 0x40 MSTORE PUSH2 0x605 SWAP2 SWAP1 DUP2 ADD SWAP1 PUSH2 0xCA3 JUMP JUMPDEST PUSH1 0x1 DUP2 MLOAD DUP2 LT PUSH2 0x617 JUMPI PUSH2 0x617 PUSH2 0xC0D JUMP JUMPDEST PUSH1 0x20 MUL PUSH1 0x20 ADD ADD MLOAD SWAP1 POP DUP1 SWAP4 POP POP POP POP SWAP5 SWAP4 POP POP POP POP JUMP JUMPDEST PUSH1 0x40 DUP1 MLOAD PUSH1 0x2 DUP1 DUP3 MSTORE PUSH1 0x60 DUP3 ADD DUP4 MSTORE PUSH1 0x0 SWAP3 DUP4 SWAP3 SWAP2 SWAP1 PUSH1 0x20 DUP4 ADD SWAP1 DUP1 CALLDATASIZE DUP4 CALLDATACOPY ADD SWAP1 POP POP SWAP1 POP DUP5 DUP2 PUSH1 0x0 DUP2 MLOAD DUP2 LT PUSH2 0x668 JUMPI PUSH2 0x668 PUSH2 0xC0D JUMP JUMPDEST PUSH1 0x20 MUL PUSH1 0x20 ADD ADD SWAP1 PUSH1 0x1 PUSH1 0x1 PUSH1 0xA0 SHL SUB AND SWAP1 DUP2 PUSH1 0x1 PUSH1 0x1 PUSH1 0xA0 SHL SUB AND DUP2 MSTORE POP POP DUP4 DUP2 PUSH1 0x1 DUP2 MLOAD DUP2 LT PUSH2 0x69C JUMPI PUSH2 0x69C PUSH2 0xC0D JUMP JUMPDEST PUSH1 0x1 PUSH1 0x1 PUSH1 0xA0 SHL SUB SWAP3 DUP4 AND PUSH1 0x20 SWAP2 DUP3 MUL SWAP3 SWAP1 SWAP3 ADD ADD MSTORE PUSH1 0x40 MLOAD PUSH4 0xD06CA61F PUSH1 0xE0 SHL DUP2 MSTORE PUSH1 0x0 SWAP2 DUP9 AND SWAP1 PUSH4 0xD06CA61F SWAP1 PUSH2 0x6DB SWAP1 DUP8 SWAP1 DUP7 SWAP1 PUSH1 0x4 ADD PUSH2 0xD61 JUMP JUMPDEST PUSH1 0x0 PUSH1 0x40 MLOAD DUP1 DUP4 SUB DUP2 DUP7 DUP1 EXTCODESIZE ISZERO DUP1 ISZERO PUSH2 0x6F3 JUMPI PUSH1 0x0 DUP1 REVERT JUMPDEST POP GAS STATICCALL ISZERO DUP1 ISZERO PUSH2 0x707 JUMPI RETURNDATASIZE PUSH1 0x0 DUP1 RETURNDATACOPY RETURNDATASIZE PUSH1 0x0 REVERT JUMPDEST POP POP POP POP PUSH1 0x40 MLOAD RETURNDATASIZE PUSH1 0x0 DUP3 RETURNDATACOPY PUSH1 0x1F RETURNDATASIZE SWAP1 DUP2 ADD PUSH1 0x1F NOT AND DUP3 ADD PUSH1 0x40 MSTORE PUSH2 0x72F SWAP2 SWAP1 DUP2 ADD SWAP1 PUSH2 0xCA3 JUMP JUMPDEST PUSH1 0x1 DUP2 MLOAD DUP2 LT PUSH2 0x741 JUMPI PUSH2 0x741 PUSH2 0xC0D JUMP JUMPDEST PUSH1 0x20 MUL PUSH1 0x20 ADD ADD MLOAD SWAP1 POP DUP1 SWAP3 POP POP POP SWAP5 SWAP4 POP POP POP POP JUMP JUMPDEST PUSH1 0x3 SLOAD PUSH1 0x1 SLOAD PUSH1 0x2 SLOAD PUSH1 0x0 SWAP3 DUP4 SWAP3 PUSH2 0x781 SWAP3 PUSH1 0x1 PUSH1 0x1 PUSH1 0xA0 SHL SUB SWAP3 DUP4 AND SWAP3 SWAP2 DUP3 AND SWAP2 AND DUP7 PUSH2 0x62F JUMP JUMPDEST PUSH1 0x4 SLOAD PUSH1 0x1 SLOAD PUSH1 0x2 SLOAD SWAP3 SWAP4 POP PUSH1 0x0 SWAP3 PUSH2 0x7AA SWAP3 PUSH1 0x1 PUSH1 0x1 PUSH1 0xA0 SHL SUB SWAP1 DUP2 AND SWAP3 DUP2 AND SWAP2 AND DUP8 PUSH2 0x62F JUMP JUMPDEST SWAP1 POP DUP1 DUP3 GT ISZERO PUSH2 0x810 JUMPI PUSH2 0x7BF DUP5 DUP4 DUP4 PUSH2 0x9CE JUMP JUMPDEST PUSH2 0x806 JUMPI PUSH1 0x40 MLOAD PUSH3 0x461BCD PUSH1 0xE5 SHL DUP2 MSTORE PUSH1 0x20 PUSH1 0x4 DUP3 ADD MSTORE PUSH1 0x18 PUSH1 0x24 DUP3 ADD MSTORE PUSH24 0x417262697472616765206E6F742070726F66697461626C65 PUSH1 0x40 SHL PUSH1 0x44 DUP3 ADD MSTORE PUSH1 0x64 ADD PUSH2 0x350 JUMP JUMPDEST POP PUSH1 0x0 SWAP4 SWAP3 POP POP POP JUMP JUMPDEST DUP1 DUP3 LT ISZERO PUSH2 0x874 JUMPI PUSH2 0x823 DUP5 DUP3 DUP5 PUSH2 0x9CE JUMP JUMPDEST PUSH2 0x86A JUMPI PUSH1 0x40 MLOAD PUSH3 0x461BCD PUSH1 0xE5 SHL DUP2 MSTORE PUSH1 0x20 PUSH1 0x4 DUP3 ADD MSTORE PUSH1 0x18 PUSH1 0x24 DUP3 ADD MSTORE PUSH24 0x417262697472616765206E6F742070726F66697461626C65 PUSH1 0x40 SHL PUSH1 0x44 DUP3 ADD MSTORE PUSH1 0x64 ADD PUSH2 0x350 JUMP JUMPDEST POP PUSH1 0x1 SWAP4 SWAP3 POP POP POP JUMP JUMPDEST POP PUSH1 0x2 SWAP4 SWAP3 POP POP POP JUMP JUMPDEST PUSH1 0x0 SLOAD PUSH1 0x1 PUSH1 0x1 PUSH1 0xA0 SHL SUB AND CALLER EQ PUSH2 0x8D3 JUMPI PUSH1 0x40 MLOAD PUSH3 0x461BCD PUSH1 0xE5 SHL DUP2 MSTORE PUSH1 0x20 PUSH1 0x4 DUP3 ADD MSTORE PUSH1 0x18 PUSH1 0x24 DUP3 ADD MSTORE PUSH24 0x6F6E6C79206F776E65722063616E2063616C6C2074686973 PUSH1 0x40 SHL PUSH1 0x44 DUP3 ADD MSTORE PUSH1 0x64 ADD PUSH2 0x350 JUMP JUMPDEST PUSH1 0x0 DUP2 GT PUSH2 0x931 JUMPI PUSH1 0x40 MLOAD PUSH3 0x461BCD PUSH1 0xE5 SHL DUP2 MSTORE PUSH1 0x20 PUSH1 0x4 DUP3 ADD MSTORE PUSH1 0x25 PUSH1 0x24 DUP3 ADD MSTORE PUSH32 0x4465706F73697420616D6F756E74206D75737420626520677265617465722074 PUSH1 0x44 DUP3 ADD MSTORE PUSH5 0x68616E203 PUSH1 0xDC SHL PUSH1 0x64 DUP3 ADD MSTORE PUSH1 0x84 ADD PUSH2 0x350 JUMP JUMPDEST PUSH1 0x1 SLOAD PUSH1 0x40 MLOAD PUSH4 0x23B872DD PUSH1 0xE0 SHL DUP2 MSTORE CALLER PUSH1 0x4 DUP3 ADD MSTORE ADDRESS PUSH1 0x24 DUP3 ADD MSTORE PUSH1 0x44 DUP2 ADD DUP4 SWAP1 MSTORE PUSH1 0x1 PUSH1 0x1 PUSH1 0xA0 SHL SUB SWAP1 SWAP2 AND SWAP1 PUSH4 0x23B872DD SWAP1 PUSH1 0x64 ADD PUSH1 0x20 PUSH1 0x40 MLOAD DUP1 DUP4 SUB DUP2 PUSH1 0x0 DUP8 DUP1 EXTCODESIZE ISZERO DUP1 ISZERO PUSH2 0x983 JUMPI PUSH1 0x0 DUP1 REVERT JUMPDEST POP GAS CALL ISZERO DUP1 ISZERO PUSH2 0x997 JUMPI RETURNDATASIZE PUSH1 0x0 DUP1 RETURNDATACOPY RETURNDATASIZE PUSH1 0x0 REVERT JUMPDEST POP POP POP POP PUSH1 0x40 MLOAD RETURNDATASIZE PUSH1 0x1F NOT PUSH1 0x1F DUP3 ADD AND DUP3 ADD DUP1 PUSH1 0x40 MSTORE POP DUP2 ADD SWAP1 PUSH2 0x9BB SWAP2 SWAP1 PUSH2 0xB67 JUMP JUMPDEST POP DUP1 PUSH1 0x5 PUSH1 0x0 DUP3 DUP3 SLOAD PUSH2 0x448 SWAP2 SWAP1 PUSH2 0xD82 JUMP JUMPDEST PUSH1 0x0 DUP1 DUP4 PUSH2 0x9DC DUP5 DUP3 PUSH2 0xB9F JUMP JUMPDEST PUSH2 0x9E6 SWAP2 SWAP1 PUSH2 0xBD5 JUMP JUMPDEST SWAP1 POP PUSH1 0x0 PUSH2 0x3E8 PUSH2 0x9F8 DUP8 PUSH1 0x3 PUSH2 0xBB6 JUMP JUMPDEST PUSH2 0xA03 SWAP1 PUSH1 0x2 PUSH2 0xBB6 JUMP JUMPDEST PUSH2 0xA0D SWAP2 SWAP1 PUSH2 0xBD5 JUMP JUMPDEST SWAP1 POP DUP1 DUP3 GT ISZERO PUSH2 0xA22 JUMPI PUSH1 0x1 SWAP3 POP POP POP PUSH2 0xA29 JUMP JUMPDEST PUSH1 0x0 SWAP3 POP POP POP JUMPDEST SWAP4 SWAP3 POP POP POP JUMP JUMPDEST PUSH1 0x0 PUSH1 0x20 DUP3 DUP5 SUB SLT ISZERO PUSH2 0xA42 JUMPI PUSH1 0x0 DUP1 REVERT JUMPDEST POP CALLDATALOAD SWAP2 SWAP1 POP JUMP JUMPDEST DUP1 CALLDATALOAD PUSH1 0x1 PUSH1 0x1 PUSH1 0xA0 SHL SUB DUP2 AND DUP2 EQ PUSH2 0xA60 JUMPI PUSH1 0x0 DUP1 REVERT JUMPDEST SWAP2 SWAP1 POP JUMP JUMPDEST PUSH1 0x0 DUP1 PUSH1 0x0 DUP1 PUSH1 0x80 DUP6 DUP8 SUB SLT ISZERO PUSH2 0xA7B JUMPI PUSH1 0x0 DUP1 REVERT JUMPDEST DUP5 CALLDATALOAD SWAP4 POP PUSH2 0xA8B PUSH1 0x20 DUP7 ADD PUSH2 0xA49 JUMP JUMPDEST SWAP3 POP PUSH2 0xA99 PUSH1 0x40 DUP7 ADD PUSH2 0xA49 JUMP JUMPDEST SWAP2 POP PUSH2 0xAA7 PUSH1 0x60 DUP7 ADD PUSH2 0xA49 JUMP JUMPDEST SWAP1 POP SWAP3 SWAP6 SWAP2 SWAP5 POP SWAP3 POP JUMP JUMPDEST PUSH1 0x0 DUP1 PUSH1 0x0 DUP1 PUSH1 0x80 DUP6 DUP8 SUB SLT ISZERO PUSH2 0xAC8 JUMPI PUSH1 0x0 DUP1 REVERT JUMPDEST PUSH2 0xAD1 DUP6 PUSH2 0xA49 JUMP JUMPDEST SWAP4 POP PUSH2 0xADF PUSH1 0x20 DUP7 ADD PUSH2 0xA49 JUMP JUMPDEST SWAP3 POP PUSH2 0xAED PUSH1 0x40 DUP7 ADD PUSH2 0xA49 JUMP JUMPDEST SWAP4 SWAP7 SWAP3 SWAP6 POP SWAP3 SWAP4 PUSH1 0x60 ADD CALLDATALOAD SWAP3 POP POP JUMP JUMPDEST PUSH4 0x4E487B71 PUSH1 0xE0 SHL PUSH1 0x0 MSTORE PUSH1 0x21 PUSH1 0x4 MSTORE PUSH1 0x24 PUSH1 0x0 REVERT JUMPDEST PUSH1 0x20 DUP2 ADD PUSH1 0x3 DUP4 LT PUSH2 0xB35 JUMPI PUSH4 0x4E487B71 PUSH1 0xE0 SHL PUSH1 0x0 MSTORE PUSH1 0x21 PUSH1 0x4 MSTORE PUSH1 0x24 PUSH1 0x0 REVERT JUMPDEST SWAP2 SWAP1 MSTORE SWAP1 JUMP JUMPDEST PUSH1 0x0 DUP1 PUSH1 0x0 PUSH1 0x60 DUP5 DUP7 SUB SLT ISZERO PUSH2 0xB50 JUMPI PUSH1 0x0 DUP1 REVERT JUMPDEST POP POP DUP2 CALLDATALOAD SWAP4 PUSH1 0x20 DUP4 ADD CALLDATALOAD SWAP4 POP PUSH1 0x40 SWAP1 SWAP3 ADD CALLDATALOAD SWAP2 SWAP1 POP JUMP JUMPDEST PUSH1 0x0 PUSH1 0x20 DUP3 DUP5 SUB SLT ISZERO PUSH2 0xB79 JUMPI PUSH1 0x0 DUP1 REVERT JUMPDEST DUP2 MLOAD DUP1 ISZERO ISZERO DUP2 EQ PUSH2 0xA29 JUMPI PUSH1 0x0 DUP1 REVERT JUMPDEST PUSH4 0x4E487B71 PUSH1 0xE0 SHL PUSH1 0x0 MSTORE PUSH1 0x11 PUSH1 0x4 MSTORE PUSH1 0x24 PUSH1 0x0 REVERT JUMPDEST PUSH1 0x0 DUP3 DUP3 LT ISZERO PUSH2 0xBB1 JUMPI PUSH2 0xBB1 PUSH2 0xB89 JUMP JUMPDEST POP SUB SWAP1 JUMP JUMPDEST PUSH1 0x0 DUP2 PUSH1 0x0 NOT DIV DUP4 GT DUP3 ISZERO ISZERO AND ISZERO PUSH2 0xBD0 JUMPI PUSH2 0xBD0 PUSH2 0xB89 JUMP JUMPDEST POP MUL SWAP1 JUMP JUMPDEST PUSH1 0x0 DUP3 PUSH2 0xBF2 JUMPI PUSH4 0x4E487B71 PUSH1 0xE0 SHL PUSH1 0x0 MSTORE PUSH1 0x12 PUSH1 0x4 MSTORE PUSH1 0x24 PUSH1 0x0 REVERT JUMPDEST POP DIV SWAP1 JUMP JUMPDEST PUSH4 0x4E487B71 PUSH1 0xE0 SHL PUSH1 0x0 MSTORE PUSH1 0x41 PUSH1 0x4 MSTORE PUSH1 0x24 PUSH1 0x0 REVERT JUMPDEST PUSH4 0x4E487B71 PUSH1 0xE0 SHL PUSH1 0x0 MSTORE PUSH1 0x32 PUSH1 0x4 MSTORE PUSH1 0x24 PUSH1 0x0 REVERT JUMPDEST PUSH1 0x0 DUP2 MLOAD DUP1 DUP5 MSTORE PUSH1 0x20 DUP1 DUP6 ADD SWAP5 POP DUP1 DUP5 ADD PUSH1 0x0 JUMPDEST DUP4 DUP2 LT ISZERO PUSH2 0xC5C JUMPI DUP2 MLOAD PUSH1 0x1 PUSH1 0x1 PUSH1 0xA0 SHL SUB AND DUP8 MSTORE SWAP6 DUP3 ADD SWAP6 SWAP1 DUP3 ADD SWAP1 PUSH1 0x1 ADD PUSH2 0xC37 JUMP JUMPDEST POP SWAP5 SWAP6 SWAP5 POP POP POP POP POP JUMP JUMPDEST DUP6 DUP2 MSTORE DUP5 PUSH1 0x20 DUP3 ADD MSTORE PUSH1 0xA0 PUSH1 0x40 DUP3 ADD MSTORE PUSH1 0x0 PUSH2 0xC86 PUSH1 0xA0 DUP4 ADD DUP7 PUSH2 0xC23 JUMP JUMPDEST PUSH1 0x1 PUSH1 0x1 PUSH1 0xA0 SHL SUB SWAP5 SWAP1 SWAP5 AND PUSH1 0x60 DUP4 ADD MSTORE POP PUSH1 0x80 ADD MSTORE SWAP4 SWAP3 POP POP POP JUMP JUMPDEST PUSH1 0x0 PUSH1 0x20 DUP1 DUP4 DUP6 SUB SLT ISZERO PUSH2 0xCB6 JUMPI PUSH1 0x0 DUP1 REVERT JUMPDEST DUP3 MLOAD PUSH8 0xFFFFFFFFFFFFFFFF DUP1 DUP3 GT ISZERO PUSH2 0xCCE JUMPI PUSH1 0x0 DUP1 REVERT JUMPDEST DUP2 DUP6 ADD SWAP2 POP DUP6 PUSH1 0x1F DUP4 ADD SLT PUSH2 0xCE2 JUMPI PUSH1 0x0 DUP1 REVERT JUMPDEST DUP2 MLOAD DUP2 DUP2 GT ISZERO PUSH2 0xCF4 JUMPI PUSH2 0xCF4 PUSH2 0xBF7 JUMP JUMPDEST DUP1 PUSH1 0x5 SHL PUSH1 0x40 MLOAD PUSH1 0x1F NOT PUSH1 0x3F DUP4 ADD AND DUP2 ADD DUP2 DUP2 LT DUP6 DUP3 GT OR ISZERO PUSH2 0xD19 JUMPI PUSH2 0xD19 PUSH2 0xBF7 JUMP JUMPDEST PUSH1 0x40 MSTORE SWAP2 DUP3 MSTORE DUP5 DUP3 ADD SWAP3 POP DUP4 DUP2 ADD DUP6 ADD SWAP2 DUP9 DUP4 GT ISZERO PUSH2 0xD37 JUMPI PUSH1 0x0 DUP1 REVERT JUMPDEST SWAP4 DUP6 ADD SWAP4 JUMPDEST DUP3 DUP6 LT ISZERO PUSH2 0xD55 JUMPI DUP5 MLOAD DUP5 MSTORE SWAP4 DUP6 ADD SWAP4 SWAP3 DUP6 ADD SWAP3 PUSH2 0xD3C JUMP JUMPDEST SWAP9 SWAP8 POP POP POP POP POP POP POP POP JUMP JUMPDEST DUP3 DUP2 MSTORE PUSH1 0x40 PUSH1 0x20 DUP3 ADD MSTORE PUSH1 0x0 PUSH2 0xD7A PUSH1 0x40 DUP4 ADD DUP5 PUSH2 0xC23 JUMP JUMPDEST SWAP5 SWAP4 POP POP POP POP JUMP JUMPDEST PUSH1 0x0 DUP3 NOT DUP3 GT ISZERO PUSH2 0xD95 JUMPI PUSH2 0xD95 PUSH2 0xB89 JUMP JUMPDEST POP ADD SWAP1 JUMP INVALID LOG2 PUSH5 0x6970667358 0x22 SLT KECCAK256 0xEA MSTORE DUP12 COINBASE 0xBD BASEFEE DUP3 0xBF 0xAF 0xE 0xAC MSTORE PUSH21 0xDB8F54FBE46453F4EF1B0B9571C78CD757A7CB6473 PUSH16 0x6C634300080900330000000000000000 ",
  "sha1": "da73c549ab317ddbd9e2c7246fc9e9d9b32d3a33",
  "source": "// SPDX-License-Identifier: MIT\n\npragma solidity ^0.8.0;\n\nimport \"../interfaces/IUniswapV2Router02.sol\";\nimport \"../interfaces/IERC20.sol\";\n\ncontract SimpleArbitrage {\n    address public owner;\n\n    address public wethAddress;\n    address public daiAddress;\n    address public uniswapRouterAddress;\n    address public sushiswapRouterAddress;\n\n    uint256 public arbitrageAmount;\n\n    enum Exchange {\n        UNI,\n        SUSHI,\n        NONE\n    }\n\n    constructor(\n        address _uniswapRouterAddress,\n        address _sushiswapRouterAddress,\n        address _weth,\n        address _dai\n    ) {\n        uniswapRouterAddress = _uniswapRouterAddress;\n        sushiswapRouterAddress = _sushiswapRouterAddress;\n        owner = msg.sender;\n        wethAddress = _weth;\n        daiAddress = _dai;\n    }\n\n    modifier onlyOwner() {\n        require(msg.sender == owner, \"only owner can call this\");\n        _;\n    }\n\n    function deposit(uint256 amount) public onlyOwner {\n        require(amount > 0, \"Deposit amount must be greater than 0\");\n        IERC20(wethAddress).transferFrom(msg.sender, address(this), amount);\n        arbitrageAmount += amount;\n    }\n\n    function withdraw(uint256 amount) public onlyOwner {\n        require(amount <= arbitrageAmount, \"Not enough amount deposited\");\n        IERC20(wethAddress).transferFrom(address(this), msg.sender, amount);\n        arbitrageAmount -= amount;\n    }\n\n    function makeArbitrage() public {\n        uint256 amountIn = arbitrageAmount;\n        Exchange result = _comparePrice(amountIn);\n        if (result == Exchange.UNI) {\n            // sell ETH in uniswap for DAI with high price and buy ETH from sushiswap with lower price\n            uint256 amountOut = _swap(\n                amountIn,\n                uniswapRouterAddress,\n                wethAddress,\n                daiAddress\n            );\n            uint256 amountFinal = _swap(\n                amountOut,\n                sushiswapRouterAddress,\n                daiAddress,\n                wethAddress\n            );\n            arbitrageAmount = amountFinal;\n        } else if (result == Exchange.SUSHI) {\n            // sell ETH in sushiswap for DAI with high price and buy ETH from uniswap with lower price\n            uint256 amountOut = _swap(\n                amountIn,\n                sushiswapRouterAddress,\n                wethAddress,\n                daiAddress\n            );\n            uint256 amountFinal = _swap(\n                amountOut,\n                uniswapRouterAddress,\n                daiAddress,\n                wethAddress\n            );\n            arbitrageAmount = amountFinal;\n        }\n    }\n\n    function _swap(\n        uint256 amountIn,\n        address routerAddress,\n        address sell_token,\n        address buy_token\n    ) public returns (uint256) {\n        IERC20(sell_token).approve(routerAddress, amountIn);\n\n        uint256 amountOutMin = (_getPrice(\n            routerAddress,\n            sell_token,\n            buy_token,\n            amountIn\n        ) * 95) / 100;\n\n        address[] memory path = new address[](2);\n        path[0] = sell_token;\n        path[1] = buy_token;\n\n        uint256 amountOut = IUniswapV2Router02(routerAddress)\n            .swapExactTokensForTokens(\n                amountIn,\n                amountOutMin,\n                path,\n                address(this),\n                block.timestamp\n            )[1];\n        return amountOut;\n    }\n\n    function _comparePrice(uint256 amount) public view returns (Exchange) {\n        uint256 uniswapPrice = _getPrice(\n            uniswapRouterAddress,\n            wethAddress,\n            daiAddress,\n            amount\n        );\n        uint256 sushiswapPrice = _getPrice(\n            sushiswapRouterAddress,\n            wethAddress,\n            daiAddress,\n            amount\n        );\n\n        // we try to sell ETH with higher price and buy it back with low price to make profit\n        if (uniswapPrice > sushiswapPrice) {\n            require(\n                _checkIfArbitrageIsProfitable(\n                    amount,\n                    uniswapPrice,\n                    sushiswapPrice\n                ),\n                \"Arbitrage not profitable\"\n            );\n            return Exchange.UNI;\n        } else if (uniswapPrice < sushiswapPrice) {\n            require(\n                _checkIfArbitrageIsProfitable(\n                    amount,\n                    sushiswapPrice,\n                    uniswapPrice\n                ),\n                \"Arbitrage not profitable\"\n            );\n            return Exchange.SUSHI;\n        } else {\n            return Exchange.NONE;\n        }\n    }\n\n    function _checkIfArbitrageIsProfitable(\n        uint256 amountIn,\n        uint256 higherPrice,\n        uint256 lowerPrice\n    ) public pure returns (bool) {\n        // uniswap & sushiswap have 0.3% fee for every exchange\n        // so gain made must be greater than 2 * 0.3% * arbitrage_amount\n\n        // difference in ETH\n        uint256 difference = (higherPrice - lowerPrice) / higherPrice;\n\n        uint256 payed_fee = (2 * (amountIn * 3)) / 1000;\n\n        if (difference > payed_fee) {\n            return true;\n        } else {\n            return false;\n        }\n    }\n\n    function _getPrice(\n        address routerAddress,\n        address sell_token,\n        address buy_token,\n        uint256 amount\n    ) public view returns (uint256) {\n        address[] memory pairs = new address[](2);\n        pairs[0] = sell_token;\n        pairs[1] = buy_token;\n        uint256 price = IUniswapV2Router02(routerAddress).getAmountsOut(\n            amount,\n            pairs\n        )[1];\n        return price;\n    }\n}\n",
  "sourcePath": "contracts/SimpleArbitrage.sol",
  "type": "contract"
}